:060000000C948E000C942C
:10000600EB010C9400000C9400000C9400000C947E
:1000160000000C9400000C9400000C94E1010C9478
:1000260000000C9400000C94F4000C9400000C9456
:1000360000000C9400000C9400000C9400000C943A
:1000460000000C9400000C9400000C940000102793
:10005600E80364000A00010000100001100001001E
:10006600F000BD004E6869657420646F206C613ACB
:1000760020000000000000004630424400453137B1
:10008600430044323341004332463800423342355E
:1000960000413437330039353331003835454600B1
:1000A600373641430036373641002564006E6869AD
:1000B600657420646F3A200080C00100AF016600BD
:1000C6000100B1016800050060017E0005006501C0
:1000D600830005006A01880005006F018D00050098
:1000E6007401920005007901970005007E019C00CD
:1000F60005008301A10005008801A60005008D0109
:10010600AB000B009201B300060008007800020065
:10011600C301BE000000F894EE27ECBBF1E0FBBF84
:10012600EBBFE5BFF8E1F1BDE1BD8DE0A2E0BB2785
:10013600ED938A95E9F780E094E0A0E6ED930197C8
:10014600E9F7E0ECF0E085919591009761F0A591D3
:10015600B59105901590BF01F00105900D9201979C
:10016600E1F7FB01F0CFEFE5EDBFE4E0EEBFC0E65F
:10017600D1E00C9438025D9BFECFE881ECB90C947B
:1001860084032897E985FA85FA93EA930E94BC02CC
:1001960066277727EC83FD836E837F83E0E00E94EA
:1001A6009E06EC81FD816E817F810E9494060E94ED
:1001B600A80690F4E881F981A985BA85AE0FBF1F1C
:1001C600EC91EA93D8DF0E948F06EF5FFF4F6F4FE7
:1001D6007F4F0E949906E5CFE885EA93CCDF2B9600
:1001E60008950E942F051A931CB1113631F4C09B55
:1001F60002C0C09801C0C09A37C0123631F4C19B04
:1002060002C0C19801C0C19A2FC0133631F4C29BF7
:1002160002C0C29801C0C29A27C0143631F4C39BEB
:1002260002C0C39801C0C39A1FC0153631F4C49BDF
:1002360002C0C49801C0C49A17C0163631F4C59BD3
:1002460002C0C59801C0C59A0FC0173631F4C69BC7
:1002560002C0C69801C0C69A07C0183629F4C79BC3
:1002660002C0C79801C0C79A113410F0173428F09D
:10027600103310F01A3308F007C0F601E254FE4FAF
:100286001083F60131966F01E4E0F0E0EC15FD0510
:1002960011F00C94DF010E943D05E0E6F1E00E94BA
:1002A600420539F4E0EFF0E00E944805EDEBF0E09E
:1002B6007DC00E943D05E5E6F1E00E94420539F465
:1002C600E1EEF0E00E944805ECE7F0E06FC00E9426
:1002D6003D05EAE6F1E00E94420539F4E2EDF0E080
:1002E6000E944805EAE3F0E061C00E943D05EFE6A2
:1002F600F1E00E94420539F4E2ECF0E00E94480584
:10030600E8EFF0E053C00E943D05E4E7F1E00E940B
:10031600420539F4E3EBF0E00E944805E5EBF0E036
:1003260045C00E943D05E9E7F1E00E94420539F427
:10033600E4EAF0E00E944805E3E7F0E037C00E94F7
:100346003D05EEE7F1E00E94420539F4E5E9F0E00B
:100356000E944805E1E3F0E029C00E943D05E3E87C
:10036600F1E00E94420539F4E5E8F0E00E94480514
:10037600EFEEF0E01BC00E943D05E8E8F1E00E94C8
:10038600420539F4E6E7F0E00E944805ECEAF0E0C1
:100396000DC00E943D05EDE8F1E00E94420551F4D2
:1003A600E7E6F0E00E944805EAE6F0E0E093B101F6
:1003B600F093B201CC24DD24199123C0EA930E9464
:1003C6004D05A89B02C0A89801C0A89AE991189566
:1003D6000E942F05A394AD9B02C0AD9801C0AD9AB3
:1003E600AA2D0E945405AA2D0E945B05E42DE05D0E
:1003F600EA93C1DEE92DE05DEA93BDDEE3E2EA932E
:10040600BADEE991EFBFF991E991B991A991999174
:10041600899179916991F990199009901895E881D7
:10042600E7B98BE18A95F1F7369A349BFECF349A79
:10043600E4B1F5B10C9484030E9462050E94710533
:10044600A091BD010E945B050E94A2050E94A7051E
:100456000E94A205E4E2EA9394DEE8ECF0E00E9452
:10046600B705EDE0EA9387DE0895E0E0EBBBEABB73
:10047600E8BBEFEFE7BBE0E0E5BBE1E2E4BBE4E0CD
:10048600E2BBE2E0E1BBE0E0E3BFE2BFECBFEFBD11
:10049600E5E0EEBD0E944D05E0E0E7BDE6BDEBBD43
:1004A600EABDE9BDE8BDE2BDE5BDE4BDE3BDEBB730
:1004B600E064EBBFE2E0E5BFE0E0E4BFE0E4EABF12
:1004C600E4E0E9BFE0E0EBB9E8E9EAB9E6E8E0BD77
:1004D600E0E0E0BDE3E3E9B9E0E8E8B9E0E0E0BF89
:1004E600E7B9E3E8E6B9E0E0EDB9E6BFE0E1EA93B3
:1004F6000E94520378940E9462050E9462050E943F
:100506007105A091BD010E945B050E94A2050E9493
:10051600A705E0E0EA93EA930E940203E2E9F1E02C
:10052600FA93EA930E944303E9E0EA93E0E0EA9350
:100536000E940203E42DE05DEA930E942203E92D66
:10054600E05DEA930E94220377DFD7CFFFCFE991E0
:10055600F991A991B9916D917191671721F466236B
:10056600D1F7EE270895671BE1F3E1E008F4E250C6
:100576000895A991B991EE27FF276D91662311F091
:100586003196FBCF0895AA27BB27E991F9910590EB
:10059600002011F01196FBCFFD010895E881E0716E
:1005A60011F0DC9A01C0DC98E881E07211F0DB9A68
:1005B60001C0DB98E881E07411F0DA9A01C0DA989C
:1005C600E881E07811F0D99A01C0D99885E08A953A
:1005D600F1F7DD9A8DE08A95F1F7DD988DE08A9541
:1005E600F1F78FC0E881EA93D9DFE881E295E883E5
:1005F600E881EA93D3DF85E88A95F1F782C0E8813E
:10060600F0E0ED53FE4FE081A981EA0FEA93EADFBD
:10061600E981E093C701E881E093C8012296089535
:10062600E2E00E94BB05ECE0EA93DCDFE1E00E9439
:10063600BB05E0E0E093C801E093C7010895A881F7
:10064600AA3031F0E091C901A091C701AE1768F058
:10065600E0E0EA93E091C801EF5FE093C801EA9316
:10066600CEDFA881AA3009F44CC0E091C701EF5F44
:10067600E093C701DF9AE881EA93B4DFDF9841C0CF
:100686001A93A981BA81ED91A983BA831E2FE0300E
:1006960019F01A93D4DFF5CF188123960895D49ACA
:1006A600D39AD29AD19AD59AD79AD69ADD98DF98C4
:1006B600DE98E881E093C901E058E093C501E8813E
:1006C600E054E093C601E4E1F0E00E94B7050E9421
:1006D600C1050E94C1050E94C105E0E2EA935EDF02
:1006E60088EC90E00197F1F7E8E2EA937BDFE4E03B
:1006F600EA9378DFE5E8EA9375DFE6E0EA9372DFEE
:100706008FDF219608951A930A93AA81BB811296C8
:100716000E948706309759F1AA81BB8114960E94E0
:1007260087068F01309761F00230E0E01E07F0F097
:10073600F80131978F01AA81BB811496ED93FC9342
:10074600AA81BB811296ED91FD913196FE93EE93AF
:100756003197AC81A083AA81BB810E948706FF23C3
:100766002AF0ED91FD913196FE93EE9306C0AA8193
:10077600BB81EFEFFFEFED93FC931981088125967E
:10078600089526970E94AD0610E0AC85BD85E0E091
:10079600F0E0ED93FC93EA89FB893196EA8BFB8BBB
:1007A6003197E4912E2FE03011F40C94F104E12FEF
:1007B600E03039F4253211F411E002C00E94CA0576
:1007C6000CC1E130A9F4253219F40E94CA0504C10E
:1007D60012E040E000E02D3211F401E0FEC02B32C1
:1007E60011F44BE2FAC0203211F440E2F6C002C026
:1007F600E23039F450E013E0203311F40068EDC024
:1008060004C0E33011F00C94F004203310F02A33C6
:1008160008F007C0AAE05A9F502DE22FE0535E0F62
:10082600DCC0E22FE33649F40E94D305E889F98952
:10083600A481AA930E94D905CFC0E33741F40E9450
:10084600D3050E94E1050E94BC021E2F0AC0E037B4
:1008560061F40E94D3050E94E1050E94C6021E2F84
:10086600086002600F7730E035C0E43611F0E936F3
:1008760011F4046002C0E53731F4E4E5F0E0EE83FC
:10088600FF8315E00DC0E83511F4086004C0E837B1
:1008960011F00C94EF04EEE5F0E0EE83FF8314E034
:1008A60002FF14C00E94D3050E94EB05AB85AA2364
:1008B6003AF4EA85FB850E940A06EA87FB874DE241
:1008C600403011F01F5F01C00B7F04C00E94D305AA
:1008D6000E94EB0500FD11C0151778F407FF08C04C
:1008E60002FF04C00B7F242F115001C020E301C07A
:1008F60020E20E94CA055150EFCF312F01FF17C0E9
:100906003030A1F003FF06C0EE81FF812591EE8312
:10091600FF8305C0AE81BF812D91AE83BF830E9448
:10092600CA05503009F051503150EACF4BC020E390
:10093600EE81FF810E948B06E887F987EE81FF81B1
:100946003296EE83FF83E885F985AA85BB85AE17C7
:10095600BF0750F02F5FA885B985EA85FB85EA1B9E
:10096600FB0BEA87FB87EFCF2A3328F003FF02C091
:10097600295F01C0295D04FD1AC0213320F4A88532
:10098600B985119709F409C0531710F000FF01C08B
:1009960013C020E207FF0BC020E3006102FF07C07F
:1009A6000B7F4A930E94D905503009F051500E949E
:1009B600CA05503009F051503150A885B9851297B3
:1009C60008F0B5CF00FF08C0503031F05150E0E2DA
:1009D600EA930E94D905F8CF10E0DDCEAC85BD853F
:1009E6000E9487060E94B40664960895FF92F82E28
:1009F60026970E94AF060E94F305309719F4EFEF91
:100A0600FFEF25C0DE0116960E9406068D010E94A4
:100A1600F305EE83FF83E0E0E887E987DE011A96B7
:100A26000E9406060E948706FA93EA931A930A938F
:100A3600E6E8F3E0FA93EA93FE013A96FA93EA932C
:100A4600A0DE9F01AE81BF81E0E0EC93F9010E9438
:100A5600B6062A96FF9008950A921A92FA926A9317
:100A66007A938A939A93AA93BA93EA93FA93EFB7EF
:100A7600EA930895EEEBF1E0FA93EA930895FA9378
:100A8600EA930E94AA02E0300895E093AF01F09342
:100A9600B0010895E091AF01EDBDE091B101ECBD6B
:100AA6000895B0E0EAE0F0E00E9441064E2E089577
:100AB600BB27EAE0F0E00E946B069E2E0895E0E078
:100AC600EA930E94120266277727E0939D01F0932E
:100AD6009E0160939F017093A0010895E0919D018E
:100AE600F0919E0160919F017091A001A8E8B3E189
:100AF60080E090E00E940E06DF01CB01EFEFF3E00D
:100B060060E070E00E944606E093A101F093A20126
:100B16006093A3017093A401A091A101B091A201D9
:100B26008091A3019091A401EAE0F0E060E070E01A
:100B36000E944606E093BD01A091BD01B2CFE3EB52
:100B4600F1E0FA93EA930895E0EBF0E0FA93EA9382
:100B5600E091BD01FF27662777270E94A30684E060
:100B66000E94F90428960895FA93EA930C94FA05DC
:100B7600EA930E94F502E3E0F0E0F6CFE0E3EA93C1
:100B86000E94D10288EC90E00197F1F708952A932C
:100B9600ED85FE85FA93EA93E989FA890995089520
:100BA600E889F9893497E88BF98B0895ED85FE85F8
:100BB600FA93EA93E989FA8909950895A889B98982
:100BC60014960E948706EE83FF83FA93EA930895AC
:100BD600A889B98914960E948706EA87FB87089533
:100BE600DE011C960E9406060E9487060895E9917A
:100BF600F991309639F080ED97E00197F1F7A895D5
:100C06003197C9F708950024AF0DB01D0895F195E9
:100C1600E195F04008957A9F702D6B9F700DF89FB7
:100C2600700DE99F700D6A9F602D710DFB9F600D21
:100C3600711DE89F600D711D8827FA9FF02D610DCB
:100C4600781FEB9FF00D611D781FEA9FE02DF10DD7
:100C5600681F781F08950024112490E1AA0FBB1F76
:100C6600001C111C0E1A1F0A18F40E0E1F1E01C0BE
:100C7600A1609A9599F7FD01D001089537D0EBDF71
:100C86000EF4C5DF08953F934F935F93002411241C
:100C96004427552730E2AA0FBB1F881F991F001C47
:100CA600111C441F551F0E1A1F0A460B570B28F41A
:100CB6000E0E1F1E461F571F01C0A1603A9559F719
:100CC600FD01BC01D001CA015F914F913F9108958A
:100CD600E894B7FF04C0A095B09511966894F7FD07
:100CE60096DFB9DFFD010EF492DF0895E894F7FF71
:100CF60002C08DDF6894B7FF06C0A095B095119627
:100D060000F8039400FA0895ED91FC911197089567
:100D16000590F491E02D0895E881F9816A817B813F
:100D26000895A881B9818A819B810895E883F98312
:100D36006A837B830895E883E983EA83EB830895D6
:100D46007A936A93FA93EA930895AE17BF078607D4
:100D5600970708955A934A933A932A931A930A93B4
:100D660008955D814C813B812A811981088108950E
:00000001FF
